:100000000200037581907E8078011200871204B28D
:1000100012142E75FD1D9002F512031D12002A12F6
:10002000004090000112006580F27827121440E829
:10003000FAE9FBEEF8EAF608EBF608E8548FFE2240
:10004000EEB48002241014F9F8E7F989FA18E6F8FA
:1000500088F97D007C69120C4CE8FA782874408A93
:10006000F0120290227400C39582F5827400958389
:10007000F583E4A374C7F8E8F8E8940170F8E58222
:1000800070F0E58370EC22C0E0C0D0C0F012037DB8
:1000900075F0FD1204807410120352D5E0FA74302A
:1000A0001202091203527430120209120352743000
:1000B0001202091203527420120209120352742808
:1000C0001201F3120352740F1201F312035274015E
:1000D0001201F312035274061201F3120352D0F00C
:1000E000D0D0D0E022C0E0C0D0B480005039B408F5
:1000F00000402FB42000502AB40C0474018028B4AE
:100100001104740F8021B41204740E801AB4130405
:10011000740C8013B40D047402800CB40A0C74C007
:1001200080051201B980031201F3D0D0D0E022C0C3
:10013000E0C0D0540F2430B43A004002240712012A
:10014000B9D0D0D0E022C0E0C0D0C412012FC41278
:10015000012FD0D0D0E022C0E0C0D0E5831201460C
:10016000E582120146D0D0D0E022C0E0C0D0C083EA
:10017000C082E49360071200E5A3020172D082D02E
:1001800083D0D0D0E022C0E0C0D0E8C0E0E9C0E039
:1001900074801200E57900E61200E50809B910F74D
:1001A00074C01200E5E61200E50809B920F7D0E0B6
:1001B000F9D0E0F8D0D0D0E022C0E0C0D01201C920
:1001C000C41201C9D0D0D0E022C0E0C0D0C0F0122B
:1001D0000499D2F0C2F154F0030353F0C342F01279
:1001E0000480D2F1120480C2F1120480D0F0D0D089
:1001F000D0E022C0E0C0D0120209120352C41202A1
:1002000009120352D0D0D0E022C0E0C0D0C0F0121A
:100210000499C2F0C2F154F0030353F0C342F01248
:100220000480D2F1120480C2F1120480D0F0D0D048
:10023000D0E022C0E0C0F0C0D0C082C083E8C0E0FF
:1002400090027C12016AE812014674201200E574E3
:100250007C1200E575F004E612014674201200E5F8
:1002600008D5F0CF74CF1200E5747C1200E5D0E021
:10027000F8D083D082D0D0D0F0D0E0221380414497
:10028000527C20484558204441544120207CC000E5
:10029000C0828882C082C0E0C0D0C0F0F5F0E8C063
:1002A000F075F00584F8E5F0600108D0E0448012B4
:1002B00000E574131200E5D0F0C0F0E5F0601C75A5
:1002C000F00584C0F0600BF5F074041201B918D584
:1002D000F0F9D0E06005141201B918B800028008E6
:1002E00074201201B91880F3D0F0D0D0D0E0D082C1
:1002F000A882D08222101010101010101018181898
:1003000018181818181C1C1C1C1C1C1C1C1E1E1E3B
:100310001E1E1E1E1E1F1F1F1F1F1F1F9FC0E0C06F
:10032000D0744012032BD0D0D0E022C0E0C0D0C0A7
:1003300083C08244401201F37400931201B920E794
:1003400003A380F474801201F3D082D083D0D0D084
:10035000E022C0E0C0D07420120363D5E0FAD0D010
:10036000D0E022C0E0C0D0E5D75407B46F05D0E09C
:10037000D0D0227419D5E0FDD0D0D0E022D2EFD277
:10038000EDD2EED2EB22D2EDC2EFD2EEC2ED22C21E
:10039000EFD2EED2EDD2EF22C0E0C0F075F008331C
:1003A00092EFD2EED2EDC2EDD5F0F4C2EED2EDA2D4
:1003B000ECC2EDD0F0D0E022C0F0C0D075F008C2A1
:1003C000EED2EDA2ECC2ED33D5F0F4C392EFD2EE53
:1003D000D2EDC2EDD0D0D0F022C0F0C0D075F00880
:1003E000C2EED2EDA2ECC2ED33D5F0F4D392EFD24F
:1003F000EED2EDC2EDD0D0D0F022C0E0C0D0E8C047
:10040000E0120386E5831203984024E58354F9B48F
:10041000F007E5821203984016E612039840100890
:10042000D5F0F612038FD0E0F8D0D0C3D0E022127E
:10043000038FD0E0D0D0D3D0E022C0E0C0D0E8C05D
:10044000E0120386E583120398402AE58354F9B449
:10045000F107E582120398401CD5F0061203D9F685
:1004600080071203B8F60880F012038FD0E0F8D0AE
:10047000D0C3D0E02212038FD0E0D0D0D3D0E0227E
:10048000C0E0C0D01203867470120398E5F0120326
:100490009812038FD0D0D0E022C0E0C0D0120386E3
:1004A00074711203981203D912038FF5F0D0D0D0D3
:1004B000E022C0F0120499C2F6120480D0F022C0EB
:1004C000F0120499D2F6120480D0F022C0F0120487
:1004D00099C2F7120480D0F022C0F0120499D2F72A
:1004E000120480D0F02208200800C0E0E5D75407AD
:1004F000B406005014759D2DF4C394025407248053
:10050000F59E759850C3D0E022D3D0E022F5993003
:1005100099FDC29922C0E0C0D0540F1206271205DF
:100520000D12056ED0D0D0E022C0E0C0D0C0E0C433
:10053000120515D0E0120515D0D0D0E022C0E0C0E1
:10054000D0E583120529E582120529D0D0D0E0221A
:10055000C0E0C0D0C082C083E493600912050D12D0
:10056000056EA380F3D083D082D0D0D0E022C0E04B
:10057000C0D0109805D0D0D0E022E599B413F61081
:1005800098F380FB3098FDC298E59922C0F01205DF
:100590008412061A1206354010C4F5F012058412B2
:1005A000061A120635400245F0D0F022C0E0C0D055
:1005B0007854120584547F12061AB40D06F6D0D072
:1005C000D0E022B40813B85407740712050D80E276
:1005D000189004E612055080D912060C40EBB87E44
:1005E0000280E6F60880E4C0E0C0D0E8C0E0E9C0E0
:1005F000E078547954E6B4200F08B880F8D0E0F9D8
:10060000D0E0F8D0D0D0E022F70980EDB42000404F
:1006100007B47F005002C322D322B47B005007B43A
:1006200061004002942022C0D0B40A004002240796
:100630002430D0D022C394304010B40A00400A9431
:10064000074007B41000B34001C322E6120635226A
:10065000C0F012064B400BC4F5F00812064B4002E6
:1006600045F0D0F022120650400AF58308120650D9
:100670004002F58222C0E0C0D0C0F0E8F5F0540F8F
:10068000B40A005029E5F054F0B4A0005020E8541A
:10069000F0C475F00AA4F5F0E8540FF8E5F028F876
:1006A000C2D11207A3D0F0D0D0C2D7D0E022D0F070
:1006B000D0D0D2D7D0E022C0E0C0D0C0F0E8B4643F
:1006C00000400DB49D005008D0F0D0D0D3D0E0222F
:1006D00012086BE875F00A84C425F0F8D0F0D0E079
:1006E000A2D592E5F5D0C3D0E022C0E0C0D0C0F0E2
:1006F000E8F5F0540FB40A005065E5F054F0B4A0EA
:1007000000505CE9F5F0540FB40A005052E5F05483
:10071000F0B4A0005049E8540FC0E0E8C4540F758D
:10072000F00AA4D0F025F0C0E0E954F0C4C0E0E93C
:10073000540F75F064A4A9F0F8D0E075F00AA47520
:10074000F064A428F8E935F0F9D0E028F87400390D
:10075000F9C2D11207D7D0F0D0D0C2D7D0E022D082
:10076000F0D0D0D2D7D0E02212089DC0E0C0D0C0D7
:10077000F0C08275F0057C0A7D00120C4CECC0E0E4
:10078000D5F0F3D0E0FAD0E0C4F582D0E02582F9CC
:10079000D0E0C4F582D0E02582F8D082D0F0D0D06D
:1007A000D0E022C0E0C0D020D50520D1078009309C
:1007B000D1028004E8F404F8D0D0D0E022C0E0C038
:1007C000D020D50520D10780EF30D1028004ECF491
:1007D00004FCD0D0D0E022C0E0C0D020D50520D18C
:1007E00007800F30D102800AE8F42401F8E9F434DC
:1007F00000F9D0D0D0E022C0E0C0D020D50520D173
:1008000007800F30D102800AECF42401FCEDF434AF
:1008100000FDD0D0D0E022C0E0C0D020D50520D14E
:1008200007801930D1028014E8F42401F8E9F43487
:1008300000F9EAF43400FAEBF43400FBD0D0D0E055
:1008400022C0E0C0D020D50520D107801930D102C8
:100850008014ECF42401FCEDF43400FDEEF43400DB
:10086000FEEFF43400FFD0D0D0E022C0E0C0D0E8EA
:1008700020E707D0D0C2D5D0E022F404F8D0D0D2FF
:10088000D5D0E022C0E0C0D0EC20E707D0D0C2D164
:10089000D0E022F404FCD0D0D2D1D0E022C0E0C01D
:1008A000D0E920E707D0D0C2D5D0E022E8F4240177
:1008B000F8E9F43400F9D0D0D2D5D0E022C0E0C0BD
:1008C000D0ED20E707D0D0C2D1D0E022ECF4240153
:1008D000FCEDF43400FDD0D0D2D1D0E022C0E0C095
:1008E000D0EF20E707D0D0C2D5D0E022EEF424012B
:1008F000FEEFF43400FFD0D0D2D5D0E022C0E0C06B
:10090000D0EB20E707D0D0C2D5D0E022E8F4240114
:10091000F8E9F43400F9EAF43400FAEBF43400FBBB
:10092000D0D0D2D5D0E022C0E0C0D0EF20E707D0B1
:10093000D0C2D1D0E022ECF42401FCEDF43400FD6F
:10094000EEF43400FEEFF43400FFD0D0D2D1D0E08A
:1009500022C0E0C0D0E82CF8E93DF992D5A2D292AD
:10096000D1A2D574003400FA30D114EA30E0067A0E
:10097000FF7BFF80047A007B00D0D0D3D0E022D070
:10098000D0C3D0E022C0E0C0D0E82CF8E93DF95057
:10099000087A01D0D0D3D0E0227A00D0D0C3D0E002
:1009A00022C0E0C0D0E82CF8E93DF9EA3EFAEB3F7E
:1009B000FB92D5A2D292D1A2D574003400FC30D1E2
:1009C00010EC30E0047CFF80027C00D0D0D3D0E07B
:1009D00022D0D0C3D0E022C0E0C0D0E82CF8E93D5E
:1009E000F9EA3EFAEB3FFB50087C01D0D0D3D0E0CF
:1009F000227C00D0D0C3D0E022C0E0C0D0ECF424F0
:100A000001FCEDF43400FDE82CF8E93DF992D5A2A3
:100A1000D292D1A2D574003400FA30D114EA30E079
:100A2000067AFF7BFF80047A007B00D0D0D3D0E031
:100A300022D0D0C3D0E022C0E0C0D0C3E89CF8E907
:100A40009DF950087AFFD0D0D3D0E0227A00D0D0E0
:100A5000C3D0E022C0E0C0D0ECF42401FCEDF434BB
:100A600000FDEEF43400FEEFF43400FFE82CF8E96A
:100A70003DF9EA3EFAEB3FFB92D5A2D292D1A2D544
:100A800074003400FC30D110EC30E0047CFF8002B4
:100A90007C00D0D0D3D0E022D0D0C3D0E022C0E0C0
:100AA000C0D0C3E89CF8E99DF9EA9EFAEB9FFB50A1
:100AB000087CFFD0D0D3D0E0227C00D0D0C3D0E0DF
:100AC00022C0E0C0D0C0F0C082C08388828983A8E1
:100AD0008108A981E5812403F581E5828CF0A4F6E3
:100AE00008A6F0E5838CF0A426F6E5F0340008F6BD
:100AF000E5828DF0A41826F608E5F036F692D5E5E5
:100B0000838DF0A426FAE5F03400A2D53400FB185A
:100B100086831886828981A983A882D083D082D0D7
:100B2000F0D0D0D0E022C0E0C0D0C0F0C082C083FE
:100B300088828983A88108A981E5812403F581EC55
:100B40008EF0A4F608A6F0ED8EF0A426F6E5F034BB
:100B50000008F6EC8FF0A41826F608E5F036F692B9
:100B6000D5ED8FF0A426FEE5F03400A2D53400FFC9
:100B700018E6FD18E6FC8981A983A882D083D0827B
:100B8000D0F0D0D0D0E02212089D1208BD120AC1C8
:100B9000120817221208BD1208DD120B2612084196
:100BA0002212089D120884120BAE12081722C0E010
:100BB000C0F0C0D0EC88F0A4F8C0F0EC89F0A4AA92
:100BC000F0F5F0D0E025F0F9EA3400FA7B00D0D05F
:100BD000D0F0D0E022120B94C0E0C0D0EC28F8EDA9
:100BE00039F9EE3AFAEF3BFB20D206D0D0C3D0E081
:100BF00022D0D0D3D0E02212086B120884120C0944
:100C000040061207A31207BD22C0E0C0F0C0D0EC1E
:100C1000600FE88CF084F8ACF0D0D0D0F0D0E0C316
:100C200022D0D0D0F0D0E0D322C0E0C0D0ED4C70C4
:100C300006D0D0D0E0D32212089D1208BD120C4C71
:100C40001207D71207F7D0D0C3D0E022C0E0C0D03F
:100C5000EC4D7006D0D0D3D0E022C0F0EFC0E0EE73
:100C6000C0E0EBC0E0EAC0E0C083C0827A007B0055
:100C70007F007E0075F010E920E710C3E833F8E943
:100C800033F9D5F0F37C007D00802EC3E833F8E91A
:100C900033F9EE33FEEF33FFEEC39CF582EF9DF5A3
:100CA000834004AF83AE82B3EA33FAEB33FBD5F073
:100CB000DAEBF9EAF8EFFDEEFCD082D083D0E0FA6F
:100CC000D0E0FBD0E0FED0E0FFD0F0D0D0C3D0E049
:100CD00022C0E0C0D0EF4E4D4C7006D0D0D0E0D353
:100CE000221208FD120927120CF6120817120841E9
:100CF000D0D0C3D0E022C0E0C0D0EF4E4D4C700643
:100D0000D0D0D3D0E022C0F0C083C08275F020EBF9
:100D100020E71BC3E833F8E933F9EA33FAEB33FB96
:100D2000D5F0ED7F007E007D007C00020DF4858112
:100D300083E581240CF581E9C0E0E8C0E0A88308E0
:100D4000E5832405F9E5832409F582C582C9C0F04D
:100D500075F004770009D5F0FAD0F019191919C9FE
:100D6000C582ECF608EDF608EEF608EFF61818184E
:100D70007F007E007D007C00C3D0E033C0E01581A1
:100D8000D0E033C0E00581EA33FAEB33FBEC33FC0F
:100D9000ED33FDEE33FEEF33FFC3EC96F70809EDBC
:100DA00096F70809EE96F70809EF96F7181818193C
:100DB0001919400EE7FC09E7FD09E7FE09E7FF19ED
:100DC0001919B3C582C9C0E0E733F709E733F7095A
:100DD000E733F709E733F7191919D0E0C9C582D508
:100DE000F096A8811818E6FB18E6FA18E6F918E656
:100DF000F8858381D082D083D0F0D0D0C3D0E022D8
:100E0000C0E0C0D0E8494A4B7006D0D0D0E0D32231
:100E10001208BD1208DD120E25120817120841D063
:100E2000D0C3D0E022C0E0C0D0E8494A4B7006D021
:100E3000D0D0E0D322120B26ECC0E0EDC0E0EEC033
:100E4000E0EFC0E0E8FCE9FDEAFEEBFFD0E0FBD01C
:100E5000E0FAD0E0F9D0E0F8120CF6D0D0D0E0C340
:100E600022C0E0C0D0ECC0E0EDC0E07DC97C0F1234
:100E70000AC17C0E12105DD0E0FDD0E0FCD0D0D0D5
:100E8000E022C0E0C0D0ECC0E0EDC0E07D517C7D50
:100E9000120AC17C1012105DD0E0FDD0E0FCD0D071
:100EA000D0E022C0E0C0D0ECC0E0EDC0E07DB57C79
:100EB00005120AC17C0F12105DD0E0FDD0E0FCD01D
:100EC000D0D0E022C0E0C0D0ECC0E0EDC0E07DB505
:100ED0007C05120AC17C1012105DD0E0FDD0E0FC50
:100EE000D0D0D0E022C0E0C0D0ECC0E07C01121035
:100EF00089EBC0E0EAC0E0E9C0E0E8C0E07C0212B3
:100F00001089D0E028F8D0E039F9D0E03AFAD0E002
:100F10003BFBD0E0FCD0D0D0E022C0E0C0D0ECC0A1
:100F2000E07C02121089EBC0E0EAC0E0E9C0E0E832
:100F3000C0E07C03121089EBC0E0EAC0E0E9C0E049
:100F4000E8C0E07C01121089D0E028F8D0E039F93F
:100F5000D0E03AFAD0E03BFBD0E028F8D0E039F915
:100F6000D0E03AFAD0E03BFBD0E0FCD0D0D0E02299
:100F7000C0E0C0F0C0D0C082C083ECC0E0EDC0E0F3
:100F8000EEC0E0EFC0E07C007D007E007F00758257
:100F90000075830075F010C0F075F002C3E833F8F7
:100FA000E933F9EA33FAEB33FBEC33FCED33FDEED6
:100FB00033FEEF33FFD5F0E4D0F0D3E58233F58292
:100FC000E58333F583E8C0E0E9C0E0EAC0E0EBC0C8
:100FD000E0ECC0E0EDC0E0EEC0E0EFC0E0AC82AD20
:100FE00083AE82AF83120B26D0E0FBD0E0FAD0E0D4
:100FF000F9D0E0F8C3E89CE99DEA9EEB9F5006E536
:101000008254FEF582E5812404F581D0E0FFD0E032
:10101000FED0E0FDD0E0FCD0E0FBD0E0FAD0E0F97B
:10102000D0E0F8D5F0028003020F97A983A882D000
:10103000E0FFD0E0FED0E0FDD0E0FCD083D082D055
:10104000D0D0F0D0E022C0E0C0D0EB30E706D0D066
:10105000D3D0E022D0D0D0E0120F70C322C0E0C0C5
:10106000D0ECB421004006D0D0D3D0E022C0F08C28
:10107000F0C3EB13FBEA13FAE913F9E813F8D5F020
:10108000F0D0F0D0D0C3D0E022C0E0C0D0ECB4218A
:10109000004006D0D0D3D0E022C0F08CF0C3E833BB
:1010A000F8E933F9EA33FAEB33FBD5F0F0D0F0D0BE
:1010B000D0C3D0E022C0E0C0D0ECB420004006D0C5
:1010C000D0D3D0E022C0F08CF0EB20E704C2D58072
:1010D00002D2D5A2D5EB13FBEA13FAE913F9E81310
:1010E000F8D5F0EFD0F0D0D0C3D0E022C0E0C0D02F
:1010F000ECB420004006D0D0D3D0E022C0F08CF079
:10110000C3E833F8E933F9EA33FAEB3392E7FBD576
:10111000F0EED0F0D0D0C3D0E022C0E0C0D0E8C024
:10112000E0E9C0E0E96D30E720E920E70ED0E0F922
:10113000D0E0F8D0D0C2D5C3D0E022D0E0F9D0E0E2
:10114000F8D0D0D3C2D5D0E022C3E89CF8E99DF90D
:1011500020E7E848600280D5D0E0F9D0E0F8D0D0B0
:10116000C3D2D5D0E022C0E0C0F0C0D0C3E98DF03A
:10117000B5F010E88CF0B5F00AD0D0D2D5C3D0F0DD
:10118000D0E022400AD0D0C2D5C3D0F0D0E022D0E7
:10119000D0D3C2D5D0F0D0E022C0E0C0D0E8C0E0CB
:1011A000E9C0E0EAC0E0EBC0E0EB6FA2E7502DEB56
:1011B000A2E74014D0E0FBD0E0FAD0E0F9D0E0F8AC
:1011C000D0D0C2D5C3D0E022D0E0FBD0E0FAD0E04E
:1011D000F9D0E0F8D0D0D3C2D5D0E022C3E89CF853
:1011E000E99DF9EA9EFAEB9FFB20E7DC4A4948605B
:1011F0000280C1D0E0FBD0E0FAD0E0F9D0E0F8D036
:10120000D0C3D2D5D0E022C0E0C0F0C0D0C3EB8FB5
:10121000F0B5F01CEA8EF0B5F016E98DF0B5F010DF
:10122000E88CF0B5F00AD0D0D2D5C3D0F0D0E0220F
:10123000400AD0D0C2D5C3D0F0D0E022D0D0D3C2A3
:10124000D5D0F0D0E022C0E0C0D0C082C083A2D50B
:10125000402AE58228F582E58339F5834014A2D13E
:101260004009740093F879000212C7E0F87900028F
:1012700012C7D083D082D0D0D3D0E022E8C0E0E93A
:10128000C0E0C3E833F8E933F9E58228F582E58365
:1012900039F583D0E0F9D0E0F840D7A2D1401674F8
:1012A0000093F8E5822401F582E5833400F5837428
:1012B0000093F98012E0F8E5822401F582E5833499
:1012C00000F5837400E0F9D083D082D0D0D0E02242
:1012D000C0E0C0D0C083C082C0F0EFC0E0EEC0E08C
:1012E000EDC0E0ECC0E07C877D6412116620D5255E
:1012F0005002802DC2A07C787D9B12116620D509FA
:101300004002801DC2A10213B87BC07A0079007828
:1013100000C30213B87B3F7AFF79007800C3021341
:10132000B87C007D0012116620D502800EC2A77B1A
:10133000007A00793F78FFC30213B8E8C0E0E9C043
:10134000E07B007A00792678DD75F000901410EBD0
:10135000FFEAFEE9FDE8FC1213D7D0E020E72FC337
:10136000E89EF8E99FF9EA2CFAEB3DFB740093A3A1
:10137000FCD0E0C39CC0E00581740093A3FDD0E0E5
:101380009DC0E005F0740E65F0602802134FE82E52
:10139000F8E93FF9C3EA9CFAEB9DFB740093A3FCC8
:1013A000D0E02CC0E00581740093A3FDD0E03DC0E7
:1013B000E080D0D0E0D0E0C3D0E0FCD0E0FDD0E0D1
:1013C000FED0E0FFD0F0D082D0834005D0D0D0E076
:1013D00022D0D0D3D0E022C0F0740065F0602EEDB2
:1013E00020E704C2D58002D2D5A2D5ED13FDEC13BF
:1013F000FCD5F0F5D0F0C0F0EF20E704C2D58002B4
:10140000D2D5A2D5EF13FFEE13FED5F0F5D0F02222
:101410004332AC1DAD0FF507FE03FF01FF007F0057
:101420003F001F000F000700030001000000C0E0A4
:10143000C0D075EFDCE8700375EF9CD0D0D0E0220F
:10144000C0E0C0D0C0F0E8540FB40900503BF5D85C
:10145000D2DCE8A2E692D520DCFD85DAF020E42C8F
:1014600020E55BE5D9C4540FC5F0540FC445F02006
:10147000D5057900F8806320E7072480F879FF809C
:1014800059C39480F8790080510214E2E5F05403C6
:101490000303F5F0E5D90303543F45F0F5F0E5DA31
:1014A000540C030320D505F9A8F0802E20E1072471
:1014B000FEF9A8F08024C39402F9A8F0801CE5F09E
:1014C000540F20D505A8D9F9801020E30724F8F996
:1014D000A8D98006C39408F9A8D9D0F0D0D0C3D039
:1014E000E022D0F0D0D0D3D0E022C0E0C0D0E8C01D
:1014F000E0E9C0E078307909760008D9FBC200C283
:1015000001753800D0E0F9D0E0F8D0D0D0E022C0AA
:10151000E0C0D012152D1215A9D0D0D0E022C0E025
:10152000C0D012152D121590D0D0D0E022C0E0C04E
:10153000D0C0F0E8C0E0E9C0E0EAC0E0EEC0E07E84
:10154000FE75F004783079348E80E6FAC45A54F08F
:10155000FAE7540F4AF7E6C4540FFAE580F454F062
:101560004AF6E6FAC45A540FFAE7F4C45A540FFA8A
:10157000E754F04AF7EE23FE0809D5F0CBD0E0FEA1
:10158000D0E0FAD0E0F9D0E0F8D0F0D0D0D0E0222E
:10159000C0E0C0D0C0F0C082C083E8C0E0E9C0E0D5
:1015A000EAC0E07830D2018015C0E0C0D0C0F0C001
:1015B00082C083E8C0E0E9C0E0EAC0E078347A04A1
:1015C0007904E6300105F5F0C455F0C43340083322
:1015D000D9FB08DAEB800E1A19EA2323299015FBB0
:1015E00093F538D200C201D0E0FAD0E0F9D0E0F8AB
:1015F000D083D082D0F0D0D0D0E0222A302344371C
:101600003839433435364231323341C0E0C0D0C07E
:10161000F0E8C0E0784075F006760008D5F0FAC230
:1016200002C203C204D0E0F8D0F0D0D0D0E022C093
:10163000E0C0D0C0F085424385404120D504E5801C
:101640008004E5B0440FF4F540E5405541F542D241
:1016500002E543F45542F5446004D203800BE542B1
:10166000F45543F5456002D204D0F0D0D0D0E0224A
:00000001FF
