:0300000002002ECD
:10002B000200CA75819075D7007E80780175500AE1
:10003B00C201C2007553007554007555667556069E
:10004B00755100755200755700755800755900753C
:10005B005A001201A21205CD12154975FD1DD2D4FD
:10006B00900410120438D2AFD2AD75CCB175CDE47B
:10007B0075CAB175CBE475C804300005C200120116
:10008B004F300139C201A857A9587C057D00120BCE
:10009B00DC8859895A786079EAAC59AD5A120D67E8
:1000AB0079001208837480120200E91202617482D3
:1000BB00120200E812026190019312028580BAC00D
:1000CB00E0C0D0D2A0C2D4C2CFC31201301201669D
:1000DB00120146A853A9547C017D00120AA0885333
:1000EB0089541550E550B4000575500AD200AC5533
:1000FB00AD56A851A95212128130D71CA870A97104
:10010B00AC55AD5612128120D70E855357855458D6
:10011B00755300755400D201857051857152D0D042
:10012B00D0E0C2A032782012155BE8FAE9FBEEF8BA
:10013B00EAF608EBF608E8548FFE22A97189FAA8B3
:10014B007088F922A971A8707D007C69120D67E88F
:10015B00FA782874408AF01203AB227F80757208FC
:10016B0079007800E9FBEFF9E7FC09E7FD09E9FF06
:10017B00EBF9120AA0E57214F57270E87D007C08A9
:10018B00120D67887089712213842042504D2020F4
:10019B0020202041505300C0E0C0D0C0F012049882
:1001AB0075F0FD12059B741012046DD5E0FA7430D6
:1001BB0012032412046D743012032412046D743074
:1001CB0012032412046D742012032412046D74287C
:1001DB0012030E12046D740F12030E12046D7401D0
:1001EB0012030E12046D740612030E12046DD0F07E
:1001FB00D0D0D0E022C0E0C0D0B480005039B408D9
:10020B0000402FB42000502AB40C0474018028B491
:10021B001104740F8021B41204740E801AB41304E9
:10022B00740C8013B40D047402800CB40A0C74C0EB
:10023B0080051202D4800312030ED0D0D0E022C06E
:10024B00E0C0D0540F2430B43A004002240712020D
:10025B00D4D0D0D0E022C0E0C0D0C412024AC41225
:10026B00024AD0D0D0E022C0E0C0D0E583120261B8
:10027B00E582120261D0D0D0E022C0E0C0D0C083B2
:10028B00C082E4936007120200A302028DD082D0D9
:10029B0083D0D0D0E022C0E0C0D0E8C0E0E9C0E01D
:1002AB0074801202007900E61202000809B910F7F7
:1002BB0074C0120200E61202000809B920F7D0E060
:1002CB00F9D0E0F8D0D0D0E022C0E0C0D01202E4E8
:1002DB00C41202E4D0D0D0E022C0E0C0D0C0F012F3
:1002EB0005B4D2F0C2F154F0030353F0C342F01241
:1002FB00059BD2F112059BC2F112059BD0F0D0D019
:10030B00D0E022C0E0C0D012032412046DC412034B
:10031B002412046DD0D0D0E022C0E0C0D0C0F012C7
:10032B0005B4C2F0C2F154F0030353F0C342F01210
:10033B00059BD2F112059BC2F112059BD0F0D0D0D8
:10034B00D0E022C0E0C0F0C0D0C082C083E8C0E0E3
:10035B00900397120285E812026174201202007456
:10036B007C12020075F004E6120261742012020086
:10037B0008D5F0CF74CF120200747C120200D0E0CB
:10038B00F8D083D082D0D0D0F0D0E022138041447B
:10039B00527C20484558204441544120207CC000C9
:1003AB00C0828882C082C0E0C0D0C0F0F5F0E8C047
:1003BB00F075F00584F8E5F0600108D0E044801298
:1003CB0002007413120200D0F0C0F0E5F0601C754F
:1003DB00F00584C0F0600BF5F074041202D418D54C
:1003EB00F0F9D0E06005141202D418B800028008AE
:1003FB0074201202D41880F3D0F0D0D0D0E0D08289
:10040B00A882D0822210101010101010101818187B
:10041B0018181818181C1C1C1C1C1C1C1C1E1E1E1F
:10042B001E1E1E1E1E1F1F1F1F1F1F1F9FC0E0C053
:10043B00D07440120446D0D0D0E022C0E0C0D0C06F
:10044B0083C082444012030E7400931202D420E73F
:10045B0003A380F4748012030ED082D083D0D0D04B
:10046B00E022C0E0C0D0742012047ED5E0FAD0D0D8
:10047B00D0E022C0E0C0D0E5D75407B46F05D0E080
:10048B00D0D0227419D5E0FDD0D0D0E022D2EFD25B
:10049B00EDD2EED2EB22D2EDC2EFD2EEC2ED22C202
:1004AB00EFD2EED2EDD2EF22C0E0C0F075F0083300
:1004BB0092EFD2EED2EDC2EDD5F0F4C2EED2EDA2B8
:1004CB00ECC2EDD0F0D0E022C0F0C0D075F008C285
:1004DB00EED2EDA2ECC2ED33D5F0F4C392EFD2EE37
:1004EB00D2EDC2EDD0D0D0F022C0F0C0D075F00864
:1004FB00C2EED2EDA2ECC2ED33D5F0F4D392EFD233
:10050B00EED2EDC2EDD0D0D0F022C0E0C0D0E8C02A
:10051B00E01204A1E5831204B34024E58354F9B43B
:10052B00F007E5821204B34016E61204B34010083C
:10053B00D5F0F61204AAD0E0F8D0D0C3D0E0221246
:10054B0004AAD0E0D0D0D3D0E022C0E0C0D0E8C025
:10055B00E01204A1E5831204B3402AE58354F9B4F5
:10056B00F107E5821204B3401CD5F0061204F4F631
:10057B0080071204D3F60880F01204AAD0E0F8D05A
:10058B00D0C3D0E0221204AAD0E0D0D0D3D0E02246
:10059B00C0E0C0D01204A174701204B3E5F01204D1
:1005AB00B31204AAD0D0D0E022C0E0C0D01204A174
:1005BB0074711204B31204F41204AAF5F0D0D0D063
:1005CB00E022C0F01205B4C2F612059BD0F022C097
:1005DB00F01205B4D2F612059BD0F022C0F0120532
:1005EB00B4C2F712059BD0F022C0F01205B4D2F7BB
:1005FB0012059BD0F02208200800C0E0E5D7540775
:10060B00B406005014759D2DF4C394025407248036
:10061B00F59E759850C3D0E022D3D0E022F59930E7
:10062B0099FDC29922C0E0C0D0540F1207421206A6
:10063B0028120689D0D0D0E022C0E0C0D0C0E0C4E0
:10064B00120630D0E0120630D0D0D0E022C0E0C08D
:10065B00D0E583120644E582120644D0D0D0E022C6
:10066B00C0E0C0D0C082C083E49360091206281298
:10067B000689A380F3D083D082D0D0D0E022C0E013
:10068B00C0D0109805D0D0D0E022E599B413F61065
:10069B0098F380FB3098FDC298E59922C0F01206C2
:1006AB009F1207351207504010C4F5F012069F1227
:1006BB000735120750400245F0D0F022C0E0C0D001
:1006CB00785412069F547F120735B40D06F6D0D01E
:1006DB00D0E022B40813B85407740712062880E23E
:1006EB001890060112066B80D912072740EBB87ED3
:1006FB000280E6F60880E4C0E0C0D0E8C0E0E9C0C4
:10070B00E078547954E6B4200F08B880F8D0E0F9BB
:10071B00D0E0F8D0D0D0E022F70980EDB420004033
:10072B0007B47F005002C322D322B47B005007B41E
:10073B0061004002942022C0D0B40A00400224077A
:10074B002430D0D022C394304010B40A00400A9415
:10075B00074007B41000B34001C322E61207502232
:10076B00C0F0120766400BC4F5F008120766400292
:10077B0045F0D0F02212076B400AF5830812076B85
:10078B004002F58222C0E0C0D0C0F0E8F5F0540F73
:10079B00B40A005029E5F054F0B4A0005020E854FE
:1007AB00F0C475F00AA4F5F0E8540FF8E5F028F85A
:1007BB00C2D11208BED0F0D0D0C2D7D0E022D0F038
:1007CB00D0D0D2D7D0E022C0E0C0D0C0F0E8B46423
:1007DB0000400DB49D005008D0F0D0D0D3D0E02213
:1007EB00120986E875F00A84C425F0F8D0F0D0E041
:1007FB00A2D592E5F5D0C3D0E022C0E0C0D0C0F0C6
:10080B00E8F5F0540FB40A005065E5F054F0B4A0CD
:10081B0000505CE9F5F0540FB40A005052E5F05467
:10082B00F0B4A0005049E8540FC0E0E8C4540F7571
:10083B00F00AA4D0F025F0C0E0E954F0C4C0E0E920
:10084B00540F75F064A4A9F0F8D0E075F00AA47504
:10085B00F064A428F8E935F0F9D0E028F8740039F1
:10086B00F9C2D11208F2D0F0D0D0C2D7D0E022D04A
:10087B00F0D0D0D2D7D0E0221209B8C0E0C0D0C09F
:10088B00F0C08275F0057C0A7D00120D67ECC0E0AC
:10089B00D5F0F3D0E0FAD0E0C4F582D0E02582F9B0
:1008AB00D0E0C4F582D0E02582F8D082D0F0D0D051
:1008BB00D0E022C0E0C0D020D50520D10780093080
:1008CB00D1028004E8F404F8D0D0D0E022C0E0C01C
:1008DB00D020D50520D10780EF30D1028004ECF475
:1008EB0004FCD0D0D0E022C0E0C0D020D50520D170
:1008FB0007800F30D102800AE8F42401F8E9F434C0
:10090B0000F9D0D0D0E022C0E0C0D020D50520D156
:10091B0007800F30D102800AECF42401FCEDF43493
:10092B0000FDD0D0D0E022C0E0C0D020D50520D132
:10093B0007801930D1028014E8F42401F8E9F4346B
:10094B0000F9EAF43400FAEBF43400FBD0D0D0E039
:10095B0022C0E0C0D020D50520D107801930D102AC
:10096B008014ECF42401FCEDF43400FDEEF43400BF
:10097B00FEEFF43400FFD0D0D0E022C0E0C0D0E8CE
:10098B0020E707D0D0C2D5D0E022F404F8D0D0D2E3
:10099B00D5D0E022C0E0C0D0EC20E707D0D0C2D148
:1009AB00D0E022F404FCD0D0D2D1D0E022C0E0C001
:1009BB00D0E920E707D0D0C2D5D0E022E8F424015B
:1009CB00F8E9F43400F9D0D0D2D5D0E022C0E0C0A1
:1009DB00D0ED20E707D0D0C2D1D0E022ECF4240137
:1009EB00FCEDF43400FDD0D0D2D1D0E022C0E0C079
:1009FB00D0EF20E707D0D0C2D5D0E022EEF424010F
:100A0B00FEEFF43400FFD0D0D2D5D0E022C0E0C04E
:100A1B00D0EB20E707D0D0C2D5D0E022E8F42401F8
:100A2B00F8E9F43400F9EAF43400FAEBF43400FB9F
:100A3B00D0D0D2D5D0E022C0E0C0D0EF20E707D095
:100A4B00D0C2D1D0E022ECF42401FCEDF43400FD53
:100A5B00EEF43400FEEFF43400FFD0D0D2D1D0E06E
:100A6B0022C0E0C0D0E82CF8E93DF992D5A2D29291
:100A7B00D1A2D574003400FA30D114EA30E0067AF2
:100A8B00FF7BFF80047A007B00D0D0D3D0E022D054
:100A9B00D0C3D0E022C0E0C0D0E82CF8E93DF9503B
:100AAB00087A01D0D0D3D0E0227A00D0D0C3D0E0E6
:100ABB0022C0E0C0D0E82CF8E93DF9EA3EFAEB3F62
:100ACB00FB92D5A2D292D1A2D574003400FC30D1C6
:100ADB0010EC30E0047CFF80027C00D0D0D3D0E05F
:100AEB0022D0D0C3D0E022C0E0C0D0E82CF8E93D42
:100AFB00F9EA3EFAEB3FFB50087C01D0D0D3D0E0B3
:100B0B00227C00D0D0C3D0E022C0E0C0D0ECF424D3
:100B1B0001FCEDF43400FDE82CF8E93DF992D5A287
:100B2B00D292D1A2D574003400FA30D114EA30E05D
:100B3B00067AFF7BFF80047A007B00D0D0D3D0E015
:100B4B0022D0D0C3D0E022C0E0C0D0C3E89CF8E9EB
:100B5B009DF950087AFFD0D0D3D0E0227A00D0D0C4
:100B6B00C3D0E022C0E0C0D0ECF42401FCEDF4349F
:100B7B0000FDEEF43400FEEFF43400FFE82CF8E94E
:100B8B003DF9EA3EFAEB3FFB92D5A2D292D1A2D528
:100B9B0074003400FC30D110EC30E0047CFF800298
:100BAB007C00D0D0D3D0E022D0D0C3D0E022C0E0A4
:100BBB00C0D0C3E89CF8E99DF9EA9EFAEB9FFB5085
:100BCB00087CFFD0D0D3D0E0227C00D0D0C3D0E0C3
:100BDB0022C0E0C0D0C0F0C082C08388828983A8C5
:100BEB008108A981E5812403F581E5828CF0A4F6C7
:100BFB0008A6F0E5838CF0A426F6E5F0340008F6A1
:100C0B00E5828DF0A41826F608E5F036F692D5E5C8
:100C1B00838DF0A426FAE5F03400A2D53400FB183E
:100C2B0086831886828981A983A882D083D082D0BB
:100C3B00F0D0D0D0E022C0E0C0D0C0F0C082C083E2
:100C4B0088828983A88108A981E5812403F581EC39
:100C5B008EF0A4F608A6F0ED8EF0A426F6E5F0349F
:100C6B000008F6EC8FF0A41826F608E5F036F6929D
:100C7B00D5ED8FF0A426FEE5F03400A2D53400FFAD
:100C8B0018E6FD18E6FC8981A983A882D083D0825F
:100C9B00D0F0D0D0D0E0221209B81209D8120BDC58
:100CAB00120932221209D81209F8120C4112095CEE
:100CBB00221209B812099F120CC912093222C0E084
:100CCB00C0F0C0D0EC88F0A4F8C0F0EC89F0A4AA76
:100CDB00F0F5F0D0E025F0F9EA3400FA7B00D0D043
:100CEB00D0F0D0E022120CAFC0E0C0D0EC28F8ED71
:100CFB0039F9EE3AFAEF3BFB20D206D0D0C3D0E065
:100D0B0022D0D0D3D0E02212098612099F120D24D3
:100D1B0040061208BE1208D822C0E0C0F0C0D0ECCA
:100D2B00600FE88CF084F8ACF0D0D0D0F0D0E0C3FA
:100D3B0022D0D0D0F0D0E0D322C0E0C0D0ED4C70A8
:100D4B0006D0D0D0E0D3221209B81209D8120D6701
:100D5B001208F2120912D0D0C3D0E022C0E0C0D0EA
:100D6B00EC4D7006D0D0D3D0E022C0F0EFC0E0EE57
:100D7B00C0E0EBC0E0EAC0E0C083C0827A007B0039
:100D8B007F007E0075F010E920E710C3E833F8E927
:100D9B0033F9D5F0F37C007D00802EC3E833F8E9FE
:100DAB0033F9EE33FEEF33FFEEC39CF582EF9DF587
:100DBB00834004AF83AE82B3EA33FAEB33FBD5F057
:100DCB00DAEBF9EAF8EFFDEEFCD082D083D0E0FA53
:100DDB00D0E0FBD0E0FED0E0FFD0F0D0D0C3D0E02D
:100DEB0022C0E0C0D0EF4E4D4C7006D0D0D0E0D337
:100DFB0022120A18120A42120E1112093212095C3F
:100E0B00D0D0C3D0E022C0E0C0D0EF4E4D4C700626
:100E1B00D0D0D3D0E022C0F0C083C08275F020EBDD
:100E2B0020E71BC3E833F8E933F9EA33FAEB33FB7A
:100E3B00D5F0ED7F007E007D007C00020F0F8581D9
:100E4B0083E581240CF581E9C0E0E8C0E0A88308C4
:100E5B00E5832405F9E5832409F582C582C9C0F031
:100E6B0075F004770009D5F0FAD0F019191919C9E2
:100E7B00C582ECF608EDF608EEF608EFF618181832
:100E8B007F007E007D007C00C3D0E033C0E0158185
:100E9B00D0E033C0E00581EA33FAEB33FBEC33FCF3
:100EAB00ED33FDEE33FEEF33FFC3EC96F70809EDA0
:100EBB0096F70809EE96F70809EF96F71818181920
:100ECB001919400EE7FC09E7FD09E7FE09E7FF19D1
:100EDB001919B3C582C9C0E0E733F709E733F7093E
:100EEB00E733F709E733F7191919D0E0C9C582D5EC
:100EFB00F096A8811818E6FB18E6FA18E6F918E63A
:100F0B00F8858381D082D083D0F0D0D0C3D0E022BB
:100F1B00C0E0C0D0E8494A4B7006D0D0D0E0D32215
:100F2B001209D81209F8120F4012093212095CD0BB
:100F3B00D0C3D0E022C0E0C0D0E8494A4B7006D005
:100F4B00D0D0E0D322120C41ECC0E0EDC0E0EEC0FB
:100F5B00E0EFC0E0E8FCE9FDEAFEEBFFD0E0FBD000
:100F6B00E0FAD0E0F9D0E0F8120E11D0D0D0E0C307
:100F7B0022C0E0C0D0ECC0E0EDC0E07DC97C0F1218
:100F8B000BDC7C0E121178D0E0FDD0E0FCD0D0D081
:100F9B00E022C0E0C0D0ECC0E0EDC0E07D517C7D34
:100FAB00120BDC7C10121178D0E0FDD0E0FCD0D01D
:100FBB00D0E022C0E0C0D0ECC0E0EDC0E07DB57C5D
:100FCB0005120BDC7C0F121178D0E0FDD0E0FCD0C9
:100FDB00D0D0E022C0E0C0D0ECC0E0EDC0E07DB5E9
:100FEB007C05120BDC7C10121178D0E0FDD0E0FCFC
:100FFB00D0D0D0E022C0E0C0D0ECC0E07C01121118
:10100B00A4EBC0E0EAC0E0E9C0E0E8C0E07C02127B
:10101B0011A4D0E028F8D0E039F9D0E03AFAD0E0CA
:10102B003BFBD0E0FCD0D0D0E022C0E0C0D0ECC085
:10103B00E07C021211A4EBC0E0EAC0E0E9C0E0E8FA
:10104B00C0E07C031211A4EBC0E0EAC0E0E9C0E011
:10105B00E8C0E07C011211A4D0E028F8D0E039F907
:10106B00D0E03AFAD0E03BFBD0E028F8D0E039F9F9
:10107B00D0E03AFAD0E03BFBD0E0FCD0D0D0E0227D
:10108B00C0E0C0F0C0D0C082C083ECC0E0EDC0E0D7
:10109B00EEC0E0EFC0E07C007D007E007F0075823B
:1010AB000075830075F010C0F075F002C3E833F8DB
:1010BB00E933F9EA33FAEB33FBEC33FCED33FDEEBA
:1010CB0033FEEF33FFD5F0E4D0F0D3E58233F58276
:1010DB00E58333F583E8C0E0E9C0E0EAC0E0EBC0AC
:1010EB00E0ECC0E0EDC0E0EEC0E0EFC0E0AC82AD04
:1010FB0083AE82AF83120C41D0E0FBD0E0FAD0E09C
:10110B00F9D0E0F8C3E89CE99DEA9EEB9F5006E519
:10111B008254FEF582E5812404F581D0E0FFD0E016
:10112B00FED0E0FDD0E0FCD0E0FBD0E0FAD0E0F95F
:10113B00D0E0F8D5F00280030210B2A983A882D0C8
:10114B00E0FFD0E0FED0E0FDD0E0FCD083D082D039
:10115B00D0D0F0D0E022C0E0C0D0EB30E706D0D04A
:10116B00D3D0E022D0D0D0E012108BC322C0E0C08D
:10117B00D0ECB421004006D0D0D3D0E022C0F08C0C
:10118B00F0C3EB13FBEA13FAE913F9E813F8D5F004
:10119B00F0D0F0D0D0C3D0E022C0E0C0D0ECB4216E
:1011AB00004006D0D0D3D0E022C0F08CF0C3E8339F
:1011BB00F8E933F9EA33FAEB33FBD5F0F0D0F0D0A2
:1011CB00D0C3D0E022C0E0C0D0ECB420004006D0A9
:1011DB00D0D3D0E022C0F08CF0EB20E704C2D58056
:1011EB0002D2D5A2D5EB13FBEA13FAE913F9E813F4
:1011FB00F8D5F0EFD0F0D0D0C3D0E022C0E0C0D013
:10120B00ECB420004006D0D0D3D0E022C0F08CF05C
:10121B00C3E833F8E933F9EA33FAEB3392E7FBD55A
:10122B00F0EED0F0D0D0C3D0E022C0E0C0D0E8C008
:10123B00E0E9C0E0E96D30E720E920E70ED0E0F906
:10124B00D0E0F8D0D0C2D5C3D0E022D0E0F9D0E0C6
:10125B00F8D0D0D3C2D5D0E022C3E89CF8E99DF9F1
:10126B0020E7E848600280D5D0E0F9D0E0F8D0D094
:10127B00C3D2D5D0E022C0E0C0F0C0D0C3E98DF01E
:10128B00B5F010E88CF0B5F00AD0D0D2D5C3D0F0C1
:10129B00D0E022400AD0D0C2D5C3D0F0D0E022D0CB
:1012AB00D0D3C2D5D0F0D0E022C0E0C0D0E8C0E0AF
:1012BB00E9C0E0EAC0E0EBC0E0EB6FA2E7502DEB3A
:1012CB00A2E74014D0E0FBD0E0FAD0E0F9D0E0F890
:1012DB00D0D0C2D5C3D0E022D0E0FBD0E0FAD0E032
:1012EB00F9D0E0F8D0D0D3C2D5D0E022C3E89CF837
:1012FB00E99DF9EA9EFAEB9FFB20E7DC4A4948603F
:10130B000280C1D0E0FBD0E0FAD0E0F9D0E0F8D019
:10131B00D0C3D2D5D0E022C0E0C0F0C0D0C3EB8F99
:10132B00F0B5F01CEA8EF0B5F016E98DF0B5F010C3
:10133B00E88CF0B5F00AD0D0D2D5C3D0F0D0E022F3
:10134B00400AD0D0C2D5C3D0F0D0E022D0D0D3C287
:10135B00D5D0F0D0E022C0E0C0D0C082C083A2D5EF
:10136B00402AE58228F582E58339F5834014A2D122
:10137B004009740093F879000213E2E0F879000257
:10138B0013E2D083D082D0D0D3D0E022E8C0E0E902
:10139B00C0E0C3E833F8E933F9E58228F582E58349
:1013AB0039F583D0E0F9D0E0F840D7A2D1401674DC
:1013BB000093F8E5822401F582E5833400F583740C
:1013CB000093F98012E0F8E5822401F582E583347D
:1013DB0000F5837400E0F9D083D082D0D0D0E02226
:1013EB00C0E0C0D0C083C082C0F0EFC0E0EEC0E070
:1013FB00EDC0E0ECC0E07C877D6412128120D52526
:10140B005002802DC2A07C787D9B12128120D509C1
:10141B004002801DC2A10214D37BC07A00790078F0
:10142B0000C30214D37B3F7AFF79007800C3021408
:10143B00D37C007D0012128120D502800EC2A77BC7
:10144B00007A00793F78FFC30214D3E8C0E0E9C00B
:10145B00E07B007A00792678DD75F00090152BEB98
:10146B00FFEAFEE9FDE8FC1214F2D0E020E72FC3FF
:10147B00E89EF8E99FF9EA2CFAEB3DFB740093A385
:10148B00FCD0E0C39CC0E00581740093A3FDD0E0C9
:10149B009DC0E005F0740E65F0602802146AE82E1A
:1014AB00F8E93FF9C3EA9CFAEB9DFB740093A3FCAC
:1014BB00D0E02CC0E00581740093A3FDD0E03DC0CB
:1014CB00E080D0D0E0D0E0C3D0E0FCD0E0FDD0E0B5
:1014DB00FED0E0FFD0F0D082D0834005D0D0D0E05A
:1014EB0022D0D0D3D0E022C0F0740065F0602EED96
:1014FB0020E704C2D58002D2D5A2D5ED13FDEC13A3
:10150B00FCD5F0F5D0F0C0F0EF20E704C2D5800297
:10151B00D2D5A2D5EF13FFEE13FED5F0F5D0F02206
:10152B004332AC1DAD0FF507FE03FF01FF007F003B
:10153B003F001F000F000700030001000000C0E088
:10154B00C0D075EFDCE8700375EF9CD0D0D0E022F3
:10155B00C0E0C0D0C0F0E8540FB40900503BF5D840
:10156B00D2DCE8A2E692D520DCFD85DAF020E42C73
:10157B0020E55BE5D9C4540FC5F0540FC445F020EA
:10158B00D5057900F8806320E7072480F879FF8080
:10159B0059C39480F8790080510215FDE5F054038E
:1015AB000303F5F0E5D90303543F45F0F5F0E5DA15
:1015BB00540C030320D505F9A8F0802E20E1072455
:1015CB00FEF9A8F08024C39402F9A8F0801CE5F082
:1015DB00540F20D505A8D9F9801020E30724F8F97A
:1015EB00A8D98006C39408F9A8D9D0F0D0D0C3D01D
:1015FB00E022D0F0D0D0D3D0E022C0E0C0D0E8C001
:10160B00E0E9C0E078307909760008D9FBC200C266
:10161B0001753800D0E0F9D0E0F8D0D0D0E022C08E
:10162B00E0C0D01216481216C4D0D0D0E022C0E0D1
:10163B00C0D01216481216ABD0D0D0E022C0E0C0FA
:10164B00D0C0F0E8C0E0E9C0E0EAC0E0EEC0E07E68
:10165B00FE75F004783079348E80E6FAC45A54F073
:10166B00FAE7540F4AF7E6C4540FFAE580F454F046
:10167B004AF6E6FAC45A540FFAE7F4C45A540FFA6E
:10168B00E754F04AF7EE23FE0809D5F0CBD0E0FE85
:10169B00D0E0FAD0E0F9D0E0F8D0F0D0D0D0E02212
:1016AB00C0E0C0D0C0F0C082C083E8C0E0E9C0E0B9
:1016BB00EAC0E07830D2018015C0E0C0D0C0F0C0E5
:1016CB0082C083E8C0E0E9C0E0EAC0E078347A0485
:1016DB007904E6300105F5F0C455F0C43340083306
:1016EB00D9FB08DAEB800E1A19EA23232990171677
:1016FB0093F538D200C201D0E0FAD0E0F9D0E0F88F
:10170B00D083D082D0F0D0D0D0E0222A30234437FF
:10171B003839433435364231323341C0E0C0D0C062
:10172B00F0E8C0E0784075F006760008D5F0FAC214
:10173B0002C203C204D0E0F8D0F0D0D0D0E022C077
:10174B00E0C0D0C0F085424385404120D504E58000
:10175B008004E5B0440FF4F540E5405541F542D225
:10176B0002E543F45542F5446004D203800BE54295
:10177B00F45543F5456002D204D0F0D0D0D0E0222E
:00000001FF
